Number         Binary                             Hexadecimal    
=================================================================
6980368        11010101000001100010000            6A8310         
5517055        10101000010111011111111            542EFF         
1336159        101000110001101011111              14635F         
6750185        11001101111111111101001            66FFE9         
1771937        110110000100110100001              1B09A1         
360952         1011000000111111000                581F8          
5672561        10101101000111001110001            568E71         
916583         11011111110001100111               DFC67          
2700138        1010010011001101101010             29336A         
9645053        100100110010101111111101           932BFD         
1181110        100100000010110110110              1205B6         
1492185        101101100010011011001              16C4D9         
4018595        1111010101000110100011             3D51A3         
7654888        11101001100110111101000            74CDE8         
7062453        11010111100001110110101            6BC3B5         
2478010        1001011100111110111010             25CFBA         
6134768        10111011001101111110000            5D9BF0         
8420417        100000000111110001000001           807C41         
2917489        1011001000010001110001             2C8471         
3340773        1100101111100111100101             32F9E5         
1115956        100010000011100110100              110734         
9172192        100010111111010011100000           8BF4E0         
6271996        10111111011001111111100            5FB3FC         
8686939        100001001000110101011011           848D5B         
50986          1100011100101010                   C72A           
9376410        100011110001001010011010           8F129A         
5962327        10110101111101001010111            5AFA57         
7686891        11101010100101011101011            754AEB         
6615183        11001001111000010001111            64F08F         
1864844        111000111010010001100              1C748C         
3329962        1100101100111110101010             32CFAA         
3942794        1111000010100110001010             3C298A         
2614836        1001111110011000110100             27E634         
7406772        11100010000010010110100            7104B4         
2384190        1001000110000100111110             24613E         
398347         1100001010000001011                6140B          
8698503        100001001011101010000111           84BA87         
9551696        100100011011111101010000           91BF50         
1019556        11111000111010100100               F8EA4          
1677430        110011001100001110110              199876         
3479629        1101010001100001001101             35184D         
9309008        100011100000101101010000           8E0B50         
5266170        10100000101101011111010            505AFA         
4094340        1111100111100110000100             3E7984         
1754055        110101100001111000111              1AC3C7         
5861132        10110010110111100001100            596F0C         
4471329        10001000011101000100001            443A21         
8826052        100001101010110011000100           86ACC4         
7469325        11100011111100100001101            71F90D         
1973172        111100001101110110100              1E1BB4         
53145          1100111110011001                   CF99           
3897508        1110110111100010100100             3B78A4         
7773386        11101101001110011001010            769CCA         
6089829        10111001110110001100101            5CEC65         
4223424        10000000111000111000000            4071C0         
9761752        100101001111001111011000           94F3D8         
7930799        11110010000001110101111            7903AF         
3597495        1101101110010010110111             36E4B7         
9302948        100011011111001110100100           8DF3A4         
2288712        1000101110110001001000             22EC48         
197187         110000001001000011                 30243          
5266939        10100000101110111111011            505DFB         
221545         110110000101101001                 36169          
7957027        11110010110101000100011            796A23         
3195361        1100001100000111100001             30C1E1         
7106269        11011000110111011011101            6C6EDD         
9633312        100100101111111000100000           92FE20         
9713704        100101000011100000101000           943828         
91925          10110011100010101                  16715          
4418686        10000110110110001111110            436C7E         
9682250        100100111011110101001010           93BD4A         
2583824        1001110110110100010000             276D10         
4979126        10010111111100110110110            4BF9B6         
6280954        10111111101011011111010            5FD6FA         
1228610        100101011111101000010              12BF42         
705518         10101100001111101110               AC3EE          
1017653        11111000011100110101               F8735          
500098         1111010000110000010                7A182          
7210727        11011100000011011100111            6E06E7         
4250898        10000001101110100010010            40DD12         
4055028        1111011101111111110100             3DDFF4         
2754240        1010100000011011000000             2A06C0         
452999         1101110100110000111                6E987          
6831458        11010000011110101100010            683D62         
207636         110010101100010100                 32B14          
7280635        11011110001011111111011            6F17FB         
3308937        1100100111110110001001             327D89         
4303570        10000011010101011010010            41AAD2         
8375055        11111111100101100001111            7FCB0F         
1457960        101100011111100101000              163F28         
5197625        10011110100111100111001            4F4F39         
3144371        1011111111101010110011             2FFAB3         
6674138        11001011101011011011010            65D6DA         
2692106        1010010001010000001010             29140A         
2276769        1000101011110110100001             22BDA1         
1940971        111011001110111101011              1D9DEB         
3288264        1100100010110011001000             322CC8         
4819803        10010011000101101011011            498B5B         
9431005        100011111110011111011101           8FE7DD         
3992019        1111001110100111010011             3CE9D3         
8184782        11111001110001111001110            7CE3CE         
2847975        1010110111010011100111             2B74E7         
7891025        11110000110100001010001            786851         
900082         11011011101111110010               DBBF2          
1831532        110111111001001101100              1BF26C         
8428253        100000001001101011011101           809ADD         
2905752        1011000101011010011000             2C5698         
9763121        100101001111100100110001           94F931         
257890         111110111101100010                 3EF62          
4699761        10001111011011001110001            47B671         
359541         1010111110001110101                57C75          
3446150        1101001001010110000110             349586         
4246818        10000001100110100100010            40CD22         
1848840        111000011011000001000              1C3608         
938480         11100101000111110000               E51F0          
227465         110111100010001001                 37889          
3923488        1110111101111000100000             3BDE20         
8915697        100010000000101011110001           880AF1         
4309094        10000011100000001100110            41C066         
3891251        1110110110000000110011             3B6033         
8627956        100000111010011011110100           83A6F4         
5884613        10110011100101011000101            59CAC5         
1659318        110010101000110110110              1951B6         
1834855        110111111111101100111              1BFF67         
3386751        1100111010110101111111             33AD7F         
3000166        1011011100011101100110             2DC766         
9135626        100010110110011000001010           8B660A         
4869260        10010100100110010001100            4A4C8C         
76550          10010101100000110                  12B06          
432271         1101001100010001111                6988F          
251028         111101010010010100                 3D494          
7016218        11010110000111100011010            6B0F1A         
6896099        11010010011100111100011            6939E3         
8386350        11111111111011100101110            7FF72E         
8637147        100000111100101011011011           83CADB         
936705         11100100101100000001               E4B01          
6602175        11001001011110110111111            64BDBF         
1429181        101011100111010111101              15CEBD         
8395138        100000000001100110000010           801982         
6132809        10111011001010001001001            5D9449         
5936917        10110101001011100010101            5A9715         
2878578        1010111110110001110010             2BEC72         
158885         100110110010100101                 26CA5          
2441957        1001010100001011100101             2542E5         
5914794        10110100100000010101010            5A40AA         
3999272        1111010000011000101000             3D0628         
3142897        1011111111010011110001             2FF4F1         
8151159        11111000110000001110111            7C6077         
5147564        10011101000101110101100            4E8BAC         
4595374        10001100001111010101110            461EAE         
4234951        10000001001111011000111            409EC7         
7880605        11110000011111110011101            783F9D         
7009921        11010101111011010000001            6AF681         
695580         10101001110100011100               A9D1C          
7370443        11100000111011011001011            7076CB         
7921729        11110001110000001000001            78E041         
8419625        100000000111100100101001           807929         
7024080        11010110010110111010000            6B2DD0         
3905988        1110111001100111000100             3B99C4         
1767599        110101111100010101111              1AF8AF         
935136         11100100010011100000               E44E0          
635788         10011011001110001100               9B38C          
8807719        100001100110010100100111           866527         
317375         1001101011110111111                4D7BF          
9975410        100110000011011001110010           983672         
2727968        1010011010000000100000             29A020         
7444399        11100011001011110101111            7197AF         
4065675        1111100000100110001011             3E098B         
9925720        100101110111010001011000           977458         
2293633        1000101111111110000001             22FF81         
7734826        11101100000011000101010            76062A         
1065463        100000100000111110111              1041F7         
1105617        100001101111011010001              10DED1         
5325800        10100010100001111101000            5143E8         
3822527        1110100101001110111111             3A53BF         
5503858        10100111111101101110010            53FB72         
9214055        100011001001100001100111           8C9867         
6521769        11000111000001110101001            6383A9         
7923796        11110001110100001010100            78E854         
5250236        10100000001110010111100            501CBC         
1083154        100001000011100010010              108712         
472141         1110011010001001101                7344D          
9597454        100100100111001000001110           92720E         
1581679        110000010001001101111              18226F         
656751         10100000010101101111               A056F          
345464         1010100010101111000                54578          
4281218        10000010101001110000010            415382         
6558883        11001000001010010100011            6414A3         
3852986        1110101100101010111010             3ACABA         
6263187        10111111001000110010011            5F9193         
5828308        10110001110111011010100            58EED4         
8058535        11110101111011010100111            7AF6A7         
9035191        100010011101110110110111           89DDB7         
7922103        11110001110000110110111            78E1B7         
9366003        100011101110100111110011           8EE9F3         
4555717        10001011000001111000101            4583C5         
3526753        1101011101000001100001             35D061         
3176815        1100000111100101101111             30796F         
858440         11010001100101001000               D1948          
2250854        1000100101100001100110             225866         
7116776        11011001001011111101000            6C97E8         
1666340        110010110110100100100              196D24         
8886983        100001111001101011000111           879AC7         
839365         11001100111011000101               CCEC5          
924280         11100001101001111000               E1A78          
1026310        11111010100100000110               FA906          
1615293        110001010010110111101              18A5BD         
1063875        100000011101111000011              103BC3         
679035         10100101110001111011               A5C7B          
5201970        10011110110000000110010            4F6032         
593979         10010001000000111011               9103B          
801371         11000011101001011011               C3A5B          
3796878        1110011110111110001110             39EF8E         
7489201        11100100100011010110001            7246B1         
9740020        100101001001111011110100           949EF4         
9128737        100010110100101100100001           8B4B21         
5473463        10100111000010010110111            5384B7         
8701957        100001001100100000000101           84C805         
8238050        11111011011001111100010            7DB3E2         
8679038        100001000110111001111110           846E7E         
385912         1011110001101111000                5E378          
5867340        10110011000011101001100            59874C         
4894542        10010101010111101001110            4AAF4E         
8999451        100010010101001000011011           89521B         
4392535        10000110000011001010111            430657         
2078131        111111011010110110011              1FB5B3         
3070124        1011101101100010101100             2ED8AC         
7451998        11100011011010101011110            71B55E         
5635510        10101011111110110110110            55FDB6         
1233932        100101101010000001100              12D40C         
6089867        10111001110110010001011            5CEC8B         
1792316        110110101100100111100              1B593C         
6298637        11000000001110000001101            601C0D         
2408038        1001001011111001100110             24BE66         
8510100        100000011101101010010100           81DA94         
991581         11110010000101011101               F215D          
6455739        11000101000000110111011            6281BB         
7829175        11101110111011010110111            7776B7         
6328931        11000001001001001100011            609263         
9982305        100110000101000101100001           985161         
2292022        1000101111100100110110             22F936         
1070496        100000101010110100000              1055A0         
8518360        100000011111101011011000           81FAD8         
6378470        11000010101001111100110            6153E6         
7756258        11101100101100111100010            7659E2         
7111767        11011001000010001010111            6C8457         
2685897        1010001111101111001001             28FBC9         
617946         10010110110111011010               96DDA          
246280         111100001000001000                 3C208          
6075442        10111001011010000110010            5CB432         
991323         11110010000001011011               F205B          
6754202        11001110000111110011010            670F9A         
3103178        1011110101100111001010             2F59CA         
3228842        1100010100010010101010             3144AA         
6786623        11001111000111000111111            678E3F         
5329085        10100010101000010111101            5150BD         
2334647        1000111001111110110111             239FB7         
7253396        11011101010110110010100            6EAD94         
6516953        11000110111000011011001            6370D9         
5972725        10110110010001011110101            5B22F5         
5828037        10110001110110111000101            58EDC5         
6642265        11001010101101001011001            655A59         
2559699        1001110000111011010011             270ED3         
6597631        11001001010101111111111            64ABFF         
5826202        10110001110011010011010            58E69A         
4642335        10001101101011000011111            46D61F         
1862900        111000110110011110100              1C6CF4         
6039635        10111000010100001010011            5C2853         
3358744        1100110100000000011000             334018         
4965249        10010111100001110000001            4BC381         
6621475        11001010000100100100011            650923         
3336153        1100101110011111011001             32E7D9         
1044743        11111111000100000111               FF107          
6201477        10111101010000010000101            5EA085         
6297100        11000000001011000001100            60160C         
885678         11011000001110101110               D83AE          
8546891        100000100110101001001011           826A4B         
6683923        11001011111110100010011            65FD13         
7064472        11010111100101110011000            6BCB98         
3430021        1101000101011010000101             345685         
9764122        100101001111110100011010           94FD1A         
9958605        100101111111010011001101           97F4CD         
1006022        11110101100111000110               F59C6          
5276496        10100001000001101010000            508350         
8876232        100001110111000011001000           8770C8         
3364648        1100110101011100101000             335728         
3539979        1101100000010000001011             36040B         
3003857        1011011101010111010001             2DD5D1         
4481634        10001000110001001100010            446262         
9035781        100010011110000000000101           89E005         
3767021        1110010111101011101101             397AED         
4993901        10011000011001101101101            4C336D         
8698377        100001001011101000001001           84BA09         
4626501        10001101001100001000101            469845         
1755352        110101100100011011000              1AC8D8         
2755340        1010100000101100001100             2A0B0C         
5150616        10011101001011110011000            4E9798         
9345169        100011101001100010010001           8E9891         
848948         11001111010000110100               CF434          
2708748        1010010101010100001100             29550C         
8372451        11111111100000011100011            7FC0E3         
3523015        1101011100000111000111             35C1C7         
2624283        1010000000101100011011             280B1B         
8795348        100001100011010011010100           8634D4         
2318100        1000110101111100010100             235F14         
4750861        10010000111111000001101            487E0D         
3770597        1110011000100011100101             3988E5         
1053352        100000001001010101000              1012A8         
833307         11001011011100011011               CB71B          
4632526        10001101010111111001110            46AFCE         
2212917        1000011100010000110101             21C435         
5053189        10011010001101100000101            4D1B05         
412218         1100100101000111010                64A3A          
4901564        10010101100101010111100            4ACABC         
5094606        10011011011110011001110            4DBCCE         
8070285        11110110010010010001101            7B248D         
6847905        11010000111110110100001            687DA1         
4311824        10000011100101100010000            41CB10         
3009421        1011011110101110001101             2DEB8D         
1629105        110001101101110110001              18DBB1         
8431899        100000001010100100011011           80A91B         
7582456        11100111011001011111000            73B2F8         
7332147        11011111110000100110011            6FE133         
314183         1001100101101000111                4CB47          
7632568        11101000111011010111000            7476B8         
8161327        11111001000100000101111            7C882F         
6961087        11010100011011110111111            6A37BF         
6898282        11010010100001001101010            69426A         
9749303        100101001100001100110111           94C337         
4427419        10000111000111010011011            438E9B         
4368829        10000101010100110111101            42A9BD         
6439318        11000100100000110010110            624196         
6473603        11000101100011110000011            62C783         
6446249        11000100101110010101001            625CA9         
9818836        100101011101001011010100           95D2D4         
9438069        100100000000001101110101           900375         
2809499        1010101101111010011011             2ADE9B         
3460304        1101001100110011010000             34CCD0         
8430904        100000001010010100111000           80A538         
9774785        100101010010011011000001           9526C1         
9560603        100100011110001000011011           91E21B         
3440732        1101001000000001011100             34805C         
7053263        11010111001111111001111            6B9FCF         
287398         1000110001010100110                462A6          
4043644        1111011011001101111100             3DB37C         
2943820        1011001110101101001100             2CEB4C         
9030962        100010011100110100110010           89CD32         
7537540        11100110000001110000100            730384         
7203657        11011011110101101001001            6DEB49         
5639400        10101100000110011101000            560CE8         
9448142        100100000010101011001110           902ACE         
9954392        100101111110010001011000           97E458         
2856859        1010111001011110011011             2B979B         
1332118        101000101001110010110              145396         
6984725        11010101001010000010101            6A9415         
1925762        111010110001010000010              1D6282         
2138171        1000001010000000111011             20A03B         
347447         1010100110100110111                54D37          
8839390        100001101110000011011110           86E0DE         
3951652        1111000100110000100100             3C4C24         
3755102        1110010100110001011110             394C5E         
6867687        11010001100101011100111            68CAE7         
4383175        10000101110000111000111            42E1C7         
7125508        11011001011101000000100            6CBA04         
7799732        11101110000001110110100            7703B4         
8784156        100001100000100100011100           86091C         
1372809        101001111001010001001              14F289         
1327984        101000100001101110000              144370         
9205087        100011000111010101011111           8C755F         
6524241        11000111000110101010001            638D51         
9316072        100011100010011011101000           8E26E8         
127744         11111001100000000                  1F300          
8388820        100000000000000011010100           8000D4         
6883557        11010010000100011100101            6908E5         
2291239        1000101111011000100111             22F627         
3101270        1011110101001001010110             2F5256         
1382825        101010001100110101001              1519A9         
9873376        100101101010011111100000           96A7E0         
6873500        11010001110000110011100            68E19C         
8185634        11111001110011100100010            7CE722         
2464786        1001011001110000010010             259C12         
8387154        11111111111101001010010            7FFA52         
5581444        10101010010101010000100            552A84         
8097911        11110111001000001110111            7B9077         
8882527        100001111000100101011111           87895F         
8941444        100010000110111110000100           886F84         
4942703        10010110110101101101111            4B6B6F         
101144         11000101100011000                  18B18          
7471180        11100100000000001001100            72004C         
1932131        111010111101101100011              1D7B63         
8052752        11110101110000000010000            7AE010         
6359493        11000010000100111000101            6109C5         
1967646        111100000011000011110              1E061E         
6575052        11001000101001111001100            6453CC         
2323342        1000110111001110001110             23738E         
6735760        11001101100011110010000            66C790         
8895858        100001111011110101110010           87BD72         
4238091        10000001010101100001011            40AB0B         
7093069        11011000011101101001101            6C3B4D         
39             100111                             27             
-39            nan                                nan            
-36            nan                                nan            
8              1000                               8              
34             100010                             22             
17             10001                              11             
49             110001                             31             
5              101                                5              
39             100111                             27             
0              0                                  0              
33             100001                             21             
12             1100                               C              
-6             nan                                nan            
27             11011                              1B             
-4             nan                                nan            
-38            nan                                nan            
26             11010                              1A             
49             110001                             31             
29             11101                              1D             
42             101010                             2A             
-16            nan                                nan            
-28            nan                                nan            
34             100010                             22             
20             10100                              14             
0              0                                  0              
25             11001                              19             
45             101101                             2D             
3              11                                 3              
-46            nan                                nan            
-46            nan                                nan            
29             11101                              1D             
33             100001                             21             
29             11101                              1D             
26             11010                              1A             
-5             nan                                nan            
-36            nan                                nan            
12             1100                               C              
45             101101                             2D             
-50            nan                                nan            
0              0                                  0              
-6             nan                                nan            
-39            nan                                nan            
35             100011                             23             
26             11010                              1A             
-35            nan                                nan            
-42            nan                                nan            
14             1110                               E              
-3             nan                                nan            
22             10110                              16             
-47            nan                                nan            
12             1100                               C              
-17            nan                                nan            
-31            nan                                nan            
-25            nan                                nan            
-35            nan                                nan            
-18            nan                                nan            
14             1110                               E              
37             100101                             25             
-8             nan                                nan            
-41            nan                                nan            
-50            nan                                nan            
-9             nan                                nan            
2              10                                 2              
12             1100                               C              
-39            nan                                nan            
-17            nan                                nan            
0              0                                  0              
27             11011                              1B             
28             11100                              1C             
45             101101                             2D             
-44            nan                                nan            
28             11100                              1C             
35             100011                             23             
-33            nan                                nan            
43             101011                             2B             
-4             nan                                nan            
23             10111                              17             
-49            nan                                nan            
49             110001                             31             
-7             nan                                nan            
-38            nan                                nan            
-45            nan                                nan            
5              101                                5              
-21            nan                                nan            
26             11010                              1A             
-2             nan                                nan            
-24            nan                                nan            
6              110                                6              
-45            nan                                nan            
-4             nan                                nan            
15             1111                               F              
0              0                                  0              
-17            nan                                nan            
-35            nan                                nan            
43             101011                             2B             
45             101101                             2D             
-35            nan                                nan            
-8             nan                                nan            
28             11100                              1C             
47             101111                             2F             
34             100010                             22             
-24            nan                                nan            
-42            nan                                nan            
-13            nan                                nan            
14             1110                               E              
-45            nan                                nan            
-35            nan                                nan            
27             11011                              1B             
-12            nan                                nan            
-19            nan                                nan            
-20            nan                                nan            
-14            nan                                nan            
20             10100                              14             
30             11110                              1E             
12             1100                               C              
-36            nan                                nan            
-47            nan                                nan            
-27            nan                                nan            
-3             nan                                nan            
6              110                                6              
36             100100                             24             
9              1001                               9              
-16            nan                                nan            
36             100100                             24             
-27            nan                                nan            
7              111                                7              
-6             nan                                nan            
-5             nan                                nan            
5              101                                5              
47             101111                             2F             
23             10111                              17             
-48            nan                                nan            
-24            nan                                nan            
40             101000                             28             
-4             nan                                nan            
-18            nan                                nan            
-19            nan                                nan            
14             1110                               E              
15             1111                               F              
1              1                                  1              
24             11000                              18             
-9             nan                                nan            
-50            nan                                nan            
18             10010                              12             
15             1111                               F              
30             11110                              1E             
44             101100                             2C             
9              1001                               9              
19             10011                              13             
33             100001                             21             
41             101001                             29             
-24            nan                                nan            
43             101011                             2B             
48             110000                             30             
-23            nan                                nan            
7              111                                7              
28             11100                              1C             
8              1000                               8              
-2             nan                                nan            
37             100101                             25             
42             101010                             2A             
-17            nan                                nan            
-6             nan                                nan            
36             100100                             24             
22             10110                              16             
27             11011                              1B             
31             11111                              1F             
-47            nan                                nan            
-43            nan                                nan            
0              0                                  0              
27             11011                              1B             
30             11110                              1E             
12             1100                               C              
-15            nan                                nan            
-19            nan                                nan            
-42            nan                                nan            
-37            nan                                nan            
31             11111                              1F             
-10            nan                                nan            
18             10010                              12             
33             100001                             21             
-15            nan                                nan            
17             10001                              11             
25             11001                              19             
-25            nan                                nan            
-5             nan                                nan            
33             100001                             21             
-13            nan                                nan            
33             100001                             21             
-10            nan                                nan            
47             101111                             2F             
47             101111                             2F             
-13            nan                                nan            
-32            nan                                nan            
1              1                                  1              
1              1                                  1              
-25            nan                                nan            
-33            nan                                nan            
16             10000                              10             
17             10001                              11             
4              100                                4              
-39            nan                                nan            
-36            nan                                nan            
8              1000                               8              
34             100010                             22             
17             10001                              11             
49             110001                             31             
5              101                                5              
0              0                                  0              
33             100001                             21             
12             1100                               C              
-6             nan                                nan            
27             11011                              1B             
-4             nan                                nan            
-38            nan                                nan            
26             11010                              1A             
49             110001                             31             
29             11101                              1D             
42             101010                             2A             
-16            nan                                nan            
34             100010                             22             
20             10100                              14             
0              0                                  0              
25             11001                              19             
45             101101                             2D             
3              11                                 3              
-46            nan                                nan            
-46            nan                                nan            
29             11101                              1D             
33             100001                             21             
29             11101                              1D             
26             11010                              1A             
-5             nan                                nan            
-36            nan                                nan            
12             1100                               C              
45             101101                             2D             
-50            nan                                nan            
0              0                                  0              
-6             nan                                nan            

Time elapsed: 0.03300762176513672 seconds
